{
  "contractName": "ether_transaction",
  "abi": [
    {
      "inputs": [],
      "stateMutability": "nonpayable",
      "type": "constructor"
    },
    {
      "anonymous": false,
      "inputs": [
        {
          "indexed": true,
          "internalType": "address",
          "name": "from",
          "type": "address"
        },
        {
          "indexed": true,
          "internalType": "address",
          "name": "to",
          "type": "address"
        },
        {
          "indexed": false,
          "internalType": "uint256",
          "name": "amount",
          "type": "uint256"
        }
      ],
      "name": "EtherTransferred",
      "type": "event"
    },
    {
      "inputs": [],
      "name": "owner",
      "outputs": [
        {
          "internalType": "address",
          "name": "",
          "type": "address"
        }
      ],
      "stateMutability": "view",
      "type": "function",
      "constant": true
    },
    {
      "stateMutability": "payable",
      "type": "receive",
      "payable": true
    },
    {
      "inputs": [],
      "name": "getBalance",
      "outputs": [
        {
          "internalType": "uint256",
          "name": "",
          "type": "uint256"
        }
      ],
      "stateMutability": "view",
      "type": "function",
      "constant": true
    },
    {
      "inputs": [
        {
          "internalType": "address payable",
          "name": "recipient",
          "type": "address"
        }
      ],
      "name": "transfer",
      "outputs": [],
      "stateMutability": "payable",
      "type": "function",
      "payable": true
    }
  ],
  "bytecode": "0x608060405234801561001057600080fd5b50336000806101000a81548173ffffffffffffffffffffffffffffffffffffffff021916908373ffffffffffffffffffffffffffffffffffffffff1602179055506106d7806100606000396000f3fe608060405260043610610055576000357c01000000000000000000000000000000000000000000000000000000009004806312065fe0146100615780631a6952301461008c5780638da5cb5b146100a85761005c565b3661005c57005b600080fd5b34801561006d57600080fd5b506100766100d3565b60405161008391906103ad565b60405180910390f35b6100a660048036038101906100a1919061042b565b610181565b005b3480156100b457600080fd5b506100bd610370565b6040516100ca9190610479565b60405180910390f35b60008060009054906101000a900473ffffffffffffffffffffffffffffffffffffffff1673ffffffffffffffffffffffffffffffffffffffff163373ffffffffffffffffffffffffffffffffffffffff1614610164576040517f08c379a000000000000000000000000000000000000000000000000000000000815260040161015b90610517565b60405180910390fd5b3073ffffffffffffffffffffffffffffffffffffffff1631905090565b60008054906101000a900473ffffffffffffffffffffffffffffffffffffffff1673ffffffffffffffffffffffffffffffffffffffff163373ffffffffffffffffffffffffffffffffffffffff161461020f576040517f08c379a0000000000000000000000000000000000000000000000000000000008152600401610206906105a9565b60405180910390fd5b600073ffffffffffffffffffffffffffffffffffffffff168173ffffffffffffffffffffffffffffffffffffffff160361027e576040517f08c379a000000000000000000000000000000000000000000000000000000000815260040161027590610615565b60405180910390fd5b600034116102c1576040517f08c379a00000000000000000000000000000000000000000000000000000000081526004016102b890610681565b60405180910390fd5b8073ffffffffffffffffffffffffffffffffffffffff166108fc349081150290604051600060405180830381858888f19350505050158015610307573d6000803e3d6000fd5b508073ffffffffffffffffffffffffffffffffffffffff163373ffffffffffffffffffffffffffffffffffffffff167fe542f7eace00597675a71f483aa6d1634c3833c9e7afd7d0089b291f5e04fdb63460405161036591906103ad565b60405180910390a350565b60008054906101000a900473ffffffffffffffffffffffffffffffffffffffff1681565b6000819050919050565b6103a781610394565b82525050565b60006020820190506103c2600083018461039e565b92915050565b600080fd5b600073ffffffffffffffffffffffffffffffffffffffff82169050919050565b60006103f8826103cd565b9050919050565b610408816103ed565b811461041357600080fd5b50565b600081359050610425816103ff565b92915050565b600060208284031215610441576104406103c8565b5b600061044f84828501610416565b91505092915050565b6000610463826103cd565b9050919050565b61047381610458565b82525050565b600060208201905061048e600083018461046a565b92915050565b600082825260208201905092915050565b7f4f6e6c7920746865206f776e65722063616e20636865636b207468652062616c60008201527f616e636500000000000000000000000000000000000000000000000000000000602082015250565b6000610501602483610494565b915061050c826104a5565b604082019050919050565b60006020820190508181036000830152610530816104f4565b9050919050565b7f4f6e6c7920746865206f776e65722063616e20706572666f726d20746869732060008201527f616374696f6e0000000000000000000000000000000000000000000000000000602082015250565b6000610593602683610494565b915061059e82610537565b604082019050919050565b600060208201905081810360008301526105c281610586565b9050919050565b7f496e76616c696420726563697069656e74206164647265737300000000000000600082015250565b60006105ff601983610494565b915061060a826105c9565b602082019050919050565b6000602082019050818103600083015261062e816105f2565b9050919050565b7f4e6f2065746865722073656e7400000000000000000000000000000000000000600082015250565b600061066b600d83610494565b915061067682610635565b602082019050919050565b6000602082019050818103600083015261069a8161065e565b905091905056fea264697066735822122098e57bbaa3d3dfed45510db24c3df72a48618cdff31c808f24b99b00b076d12664736f6c63430008170033",
  "immutableReferences": {},
  "source": "// SPDX-License-Identifier: GPL-3.0\r\npragma solidity >=0.5.0 <0.9.0;\r\n\r\ncontract ether_transaction {\r\n    address public owner;\r\n\r\n    event EtherTransferred(address indexed from, address indexed to, uint256 amount);\r\n\r\n    constructor() {\r\n        owner = msg.sender;\r\n    }\r\n\r\n    modifier onlyOwner() {\r\n        require(msg.sender == owner, \"Only the owner can perform this action\");\r\n        _;\r\n    }\r\n\r\n    function getBalance() public view returns (uint256) {\r\n        require(msg.sender == owner, \"Only the owner can check the balance\");\r\n        return address(this).balance;\r\n    }\r\n\r\n    function transfer(address payable recipient) public payable onlyOwner {\r\n        require(recipient != address(0), \"Invalid recipient address\");\r\n        require(msg.value > 0, \"No ether sent\");\r\n\r\n        recipient.transfer(msg.value);\r\n\r\n        emit EtherTransferred(msg.sender, recipient, msg.value);\r\n    }\r\n\r\n    receive() external payable {}\r\n}\r\n",
  "sourcePath": "C:\\Users\\VISHAL KUMAR\\Cryptopod-app\\Blockchain\\contracts\\ether_transaction.sol",
  "compiler": {
    "name": "solc",
    "version": "0.8.23+commit.f704f362.Emscripten.clang"
  },
  "schemaVersion": "3.4.16",
  "updatedAt": "2023-11-27T19:14:57.657Z",
  "networkType": "ethereum",
  "devdoc": {
    "kind": "dev",
    "methods": {},
    "version": 1
  },
  "userdoc": {
    "kind": "user",
    "methods": {},
    "version": 1
  }
}